S01D0000547261666669635F4C696768745F436F6E74726F6C2E73726563B1
S11300000C942A000C941B020C9447000C94470097
S11300100C9447000C9447000C9447000C94470040
S11300200C9447000C9447000C9447000C94470030
S11300300C9447000C9447000C9447000C94470020
S11300400C9447000C9447000C9447000C94470010
S11300500C94470011241FBECFE5D8E0DEBFCDBF0E
S113006010E0A0E6B0E0E2ECFAE002C005900D92E8
S1130070A236B107D9F720E0A2E6B0E001C01D9294
S1130080AB36B207E1F70E94B1020C945F050C9401
S1130090000060E082E40E942D0261E082E40E949C
S11300A02D0262E082E40E942D0260E081E40E945D
S11300B02D0261E081E40E942D0262E081E40E944D
S11300C02D0262E084E40E9427020E94EB037894EC
S11300D085B7836085BF8BB780648BBF0895EF922B
S11300E0FF920F931F938091610081115CC08091F6
S11300F0620090916300892B09F055C060E081E4AF
S11301000E942D02909363008093620060E081E47A
S11301100E9437022091620030916300820F931F86
S1130120909363008093620060E070E08AE794E457
S11301300E94EE0360E081E40E944102209162008B
S113014030916300820F931F909363008093620049
S113015060E070E08AE794E40E94EE0360E081E4EA
S11301600E944B022091620030916300820F931F22
S1130170909363008093620062E084E40E9427020B
S11301802091620030916300820F931F909363006B
S11301908093620060E070E08AE794E40E94EE03DA
S11301A081E08093610080916200909163000597E3
S11301B009F038C180916100811149C090916600B5
S11301C0923009F044C060E082E40E94370262E0A9
S11301D081E40E94370261E082E40E94410262E00D
S11301E082E40E94410260E081E40E94410261E0F5
S11301F081E40E94410260E070E48CE995E40E948D
S1130200EE0360E082E40E94410262E081E40E9425
S11302104102E12CF12C0AEF13E421E042E461E015
S113022081E40E94730261E081E40E94410261E082
S113023082E40E94410262E082E40E94370210924A
S1130240660081E08093600080936100EFC08111BB
S113025003C081E08093660060E082E40E94410272
S113026061E082E40E94410262E082E40E94410271
S1130270809166008130A9F120F0823009F49AC09F
S1130280CAC060E081E40E94370261E081E40E9418
S1130290410262E081E40E944102109265001092E2
S11302A0640013C060E070E08AE794E40E94EE0307
S11302B080916100882379F08091640090916500B9
S11302C001969093650080936400809164009091FE
S11302D06500059738F381E0809366001092600012
S11302E0A5C08091610081111DC0809160008230A1
S11302F071F062E082E40E943702E12CF12C0AEFF3
S113030013E421E042E461E081E40E94730281E0AD
S11303108093600082E08093660062E081E40E9442
S113032037022CC060E081E40E94410262E081E473
S11303300E944102109265001092640019C020E0EE
S113034030E04AEF53E461E081E40E94540280917A
S11303506100811104C081E0809360000FC080912E
S11303606400909165000196909365008093640009
S11303708091640090916500059708F361E081E441
S11303800E94410261E082E40E9441028091600087
S1130390811107C082E08093660081E08093600051
S11303A045C0823009F042C01092660081E080931B
S11303B060003CC060E081E40E94410261E081E4AD
S11303C00E94410262E081E40E94370210926500BB
S11303D01092640013C060E070E08AE794E40E9425
S11303E0EE0380916100882379F0809164009091FC
S11303F06500019690936500809364008091640089
S113040090916500059738F382E08093600081E065
S1130410809366000BC082E08093660081E0809345
S1130420600004C010926300109262001F910F914B
S1130430FF90EF9008951F920F920FB60F92112420
S1130440109261000F900FBE0F901F90189540E01E
S11304500E94B60281E090E0089541E00E94B60255
S113046010926A001092690081E090E0089541E0E2
S11304700E94330310926A001092690081E090E0B8
S1130480089540E00E94330310926A0010926900BC
S113049081E090E008950E94B00310926A001092E7
S11304A0690081E090E00895CF92DF92EF92FF928D
S11304B0CF93DF93C82FD62F69017A010E943702A8
S11304C0C701B6010E94EE036D2F8C2F0E944102DA
S11304D0C701B6010E94EE03DF91CF91FF90EF9028
S11304E0DF90CF9008958F929F92AF92BF92CF9258
S11304F0DF92EF92FF920F931F93CF93DF93882E97
S1130500962EA42EB22E67017801C0E0D0E019C067
S1130510692D882D0E9437026B2D8A2D0E94370287
S1130520C701B6010E94EE03692D882D0E94410285
S11305306B2D8A2D0E944102C701B6010E94EE0371
S11305402196C530D10520F3DF91CF911F910F91F2
S1130550FF90EF90DF90CF90BF90AF909F908F90DF
S113056008950E9449000E946F00FDCF823431F14A
S113057018F4813439F073C08334E1F1843409F41C
S113058054C06DC041110CC02AB381E090E002C098
S1130590880F991F6A95E2F7809582238ABB5FC012
S11305A0413009F05DC02AB381E090E002C0880FB9
S11305B0991F6A95E2F7822B8ABB51C041110CC086
S11305C027B381E090E002C0880F991F6A95E2F793
S11305D08095822387BB43C0413009F041C027B3D3
S11305E081E090E002C0880F991F6A95E2F7822BA0
S11305F087BB35C041110CC024B381E090E002C038
S1130600880F991F6A95E2F78095822384BB27C0DF
S1130610413031F524B381E090E002C0880F991F86
S11306206A95E2F7822B84BB1AC041110CC021B336
S113063081E090E002C0880F991F6A95E2F78095E7
S1130640822381BB0CC0413059F421B381E090E096
S113065002C0880F991F6A95E2F7822B81BB089527
S113066080E090E00895823431F118F4813439F057
S113067073C08334E1F1843409F454C06DC0411172
S11306800CC02BB381E090E002C0880F991F6A95DB
S1130690E2F7809582238BBB5FC0413009F05DC0D7
S11306A02BB381E090E002C0880F991F6A95E2F7AE
S11306B0822B8BBB51C041110CC028B381E090E068
S11306C002C0880F991F6A95E2F78095822388BB40
S11306D043C0413009F041C028B381E090E002C03A
S11306E0880F991F6A95E2F7822B88BB35C04111A8
S11306F00CC025B381E090E002C0880F991F6A9571
S1130700E2F78095822385BB27C0413031F525B3BC
S113071081E090E002C0880F991F6A95E2F7822B6E
S113072085BB1AC041110CC022B381E090E002C025
S1130730880F991F6A95E2F78095822382BB0CC0CB
S1130740413059F422B381E090E002C0880F991F30
S11307506A95E2F7822B82BB089580E090E00895C9
S11307608234A1F018F4813431F031C08334C9F0FB
S1130770843411F12CC02BB381E090E002C0880FC7
S1130780991F6A95E2F782278BBB24C028B381E0C6
S113079090E002C0880F991F6A95E2F7822788BB10
S11307A019C025B381E090E002C0880F991F6A95B3
S11307B0E2F7822785BB0EC022B381E090E002C03D
S11307C0880F991F6A95E2F7822782BB03C080E0F5
S11307D090E00895089513BE12BE08958F929F92DB
S11307E0AF92BF92CF92DF92EF92FF926B017C01A6
S11307F012BE83B7816083BF0FC008B600FEFDCF71
S113080088B7816088BF80916700909168000196E5
S1130810909368008093670060916700709168000E
S113082080E090E00E94AD044B015C012EEA37E4C5
S113083041E25FE3C701B6010E943B049B01AC01A6
S1130840C501B4010E9436048823BCF210926800EA
S11308501092670013BE81E090E0FF90EF90DF906C
S1130860CF90BF90AF909F908F9008950E94EA041C
S113087008F481E008950E944F040C9425050E9419
S11308801E0558F00E94170540F029F45F3F29F037
S11308900C940E0551110C9459050C9414050E94E6
S11308A0360568F39923B1F3552391F3951B550B42
S11308B0BB27AA2762177307840738F09F5F5F4F2F
S11308C0220F331F441FAA1FA9F335D00E2E3AF06E
S11308D0E0E832D091505040E695001CCAF72BD086
S11308E0FE2F29D0660F771F881FBB1F26173707D7
S11308F04807AB07B0E809F0BB0B802DBF01FF2709
S113090093585F4F3AF09E3F510578F00C940E05D2
S11309100C9459055F3FE4F3983ED4F3869577959C
S11309206795B795F7959F5FC9F7880F911D9695C1
S1130930879597F90895E1E0660F771F881FBB1F1D
S1130940621773078407BA0720F0621B730B840BCA
S1130950BA0BEE1F88F7E0950895E89409C097FB59
S11309603EF490958095709561957F4F8F4F9F4F82
S11309709923A9F0F92F96E9BB279395F6958795C6
S113098077956795B795F111F8CFFAF4BB0F11F489
S113099060FF1BC06F5F7F4F8F4F9F4F16C0882330
S11309A011F096E911C0772321F09EE8872F762F66
S11309B005C0662371F096E8862F70E060E02AF0A7
S11309C09A95660F771F881FDAF7880F9695879593
S11309D097F90895990F0008550FAA0BE0E8FEEF68
S11309E016161706E807F907C0F012161306E407EF
S11309F0F50798F0621B730B840B950B39F40A26E8
S1130A0061F0232B242B252B21F408950A2609F4C5
S1130A10A140A6958FEF811D811D089597F99F67C9
S1130A2080E870E060E008959FEF80EC0895002472
S1130A300A941616170618060906089500240A943F
S1130A4012161306140605060895092E0394000CC5
S1130A5011F4882352F0BB0F40F4BF2B11F460FF54
S1130A6004C06F5F7F4F8F4F9F4F089557FD90587D
S1130A70440F551F59F05F3F71F04795880F97FB5E
S1130A80991F61F09F3F79F0879508951216130618
S1130A901406551FF2CF4695F1DF08C01616170647
S1130AA01806991FF1CF869571056105089408957C
S1130AB0E894BB2766277727CB0197F90895F89424
S1050AC0FFCF62
S1050AC201012C
S9030000FC
